:020000040800F2
:100000000028002009160008991500089F1500080F
:10001000A5150008AB150008B11500080000000088
:10002000000000000000000000000000B7150008FC
:10003000C315000800000000CF150008DB150008FC
:1000400051160008511600085116000851160008F4
:1000500051160008511600085116000851160008E4
:1000600051160008511600085116000851160008D4
:1000700051160008511600085116000851160008C4
:1000800051160008511600085116000851160008B4
:1000900051160008511600085116000851160008A4
:1000A0005116000851160008511600085116000894
:1000B000E91500085116000800000000511600085C
:1000C0005116000800000000000000005116000852
:1000D0000000000051160008511600080000000042
:1000E00051160008511600085116000800000000C3
:1000F0000000000000000000000000000000000000
:0C01000000000000000000005FF808F1A3
:10010C0010B5054C237833B9044B13B10448AFF345
:10011C0000800123237010BD54000020000000005B
:10012C00A82C000808B5034B1BB103490348AFF3D7
:10013C00008008BD0000000058000020A82C00081A
:10014C0080B582B000AF78607B68002B23D1002291
:10015C000121C24801F079FD00220221BF4801F0C3
:10016C0074FD00220421BD4801F06FFD002208211E
:10017C00BA4801F06AFD00221021B84801F065FD73
:10018C0000222021B54801F060FD01224021B34836
:10019C0001F05BFD5DE17B68012B23D10122012184
:1001AC00AE4801F052FD00220221AC4801F04DFD99
:1001BC0000220421A94801F048FD01220821A7488A
:1001CC0001F043FD01221021A44801F03EFD012263
:1001DC002021A24801F039FD012240219F4801F065
:1001EC0034FD36E17B68022B23D1002201219B4890
:1001FC0001F02BFD00220221984801F026FD01227E
:10020C000421964801F021FD00220821934801F0B9
:10021C001CFD00221021914801F017FD0122202124
:10022C008E4801F012FD002240218C4801F00DFD9A
:10023C000FE17B68032B23D100220121874801F0B9
:10024C0004FD00220221854801F0FFFC002204215C
:10025C00824801F0FAFC00220821804801F0F5FCEC
:10026C00012210217D4801F0F0FC012220217B4865
:10027C0001F0EBFC00224021784801F0E6FCE8E0BC
:10028C007B68042B23D101220121744801F0DDFC91
:10029C0000220221714801F0D8FC002204216F4891
:1002AC0001F0D3FC012208216C4801F0CEFC0122A4
:1002BC0010216A4801F0C9FC00222021674801F096
:1002CC00C4FC00224021654801F0BFFCC1E07B6802
:1002DC00052B23D100220121604801F0B6FC01223C
:1002EC0002215E4801F0B1FC002204215B4801F0C0
:1002FC00ACFC00220821594801F0A7FC0122102176
:10030C00564801F0A2FC00222021544801F09DFC2B
:10031C0000224021514801F098FC9AE07B68062BA2
:10032C0023D1002201214D4801F08FFC0122022132
:10033C004A4801F08AFC00220421484801F085FC5F
:10034C0000220821454801F080FC0022102143487E
:10035C0001F07BFC00222021404801F076FC0022B9
:10036C0040213E4801F071FC73E07B68072B23D1E0
:10037C0000220121394801F068FC00220221374893
:10038C0001F063FC00220421344801F05EFC0122E0
:10039C000821324801F059FC012210212F4801F0AC
:1003AC0054FC012220212D4801F04FFC0122402158
:1003BC002A4801F04AFC4CE07B68082B23D1002230
:1003CC000121264801F041FC00220221234801F0C2
:1003DC003CFC00220421214801F037FC00220821BA
:1003EC001E4801F032FC002210211C4801F02DFCAB
:1003FC0000222021194801F028FC00224021174836
:10040C0001F023FC25E07B68092B22D1002201217D
:10041C00124801F01AFC00220221104801F015FCD0
:10042C00002204210D4801F010FC002208210B4889
:10043C0001F00BFC01221021084801F006FC0022FF
:10044C002021064801F001FC00224021034801F064
:10045C00FCFB00BF0837BD4680BD00BF000C01404F
:10046C0080B582B000AF78607B68002B2AD1002267
:10047C004FF48071CB4801F0E8FB00224FF400717F
:10048C00C84801F0E2FB00224FF48061C54801F03E
:10049C00DCFB00224FF40061C24801F0D6FB0022C5
:1004AC004FF48051BF4801F0D0FB00224FF40051B3
:1004BC00BC4801F0CAFB01224FF48041B94801F05D
:1004CC00C4FB9EE17B68012B2AD101224FF4807181
:1004DC00B44801F0BAFB00224FF40071B14801F0AE
:1004EC00B4FB00224FF48061AE4801F0AEFB012258
:1004FC004FF40061AB4801F0A8FB01224FF480518E
:10050C00A84801F0A2FB01224FF40051A54801F0CC
:10051C009CFB01224FF48041A24801F096FB70E154
:10052C007B68022B2AD100224FF480719D4801F088
:10053C008CFB00224FF400719A4801F086FB0122DB
:10054C004FF48061974801F080FB00224FF400616A
:10055C00944801F07AFB00224FF48051914801F04D
:10056C0074FB01224FF400518E4801F06EFB002207
:10057C004FF480418B4801F068FB42E17B68032B10
:10058C002AD100224FF48071864801F05EFB0022D4
:10059C004FF40071834801F058FB00224FF4806146
:1005AC00804801F052FB00224FF400617D4801F0BD
:1005BC004CFB01224FF480517A4801F046FB01229A
:1005CC004FF40051774801F040FB00224FF480417A
:1005DC00744801F03AFB14E17B68042B2AD1012208
:1005EC004FF480716F4801F030FB00224FF4007122
:1005FC006C4801F02AFB00224FF48061694801F03D
:10060C0024FB01224FF40061664801F01EFB01221D
:10061C004FF48051634801F018FB00224FF4005155
:10062C00604801F012FB00224FF480415D4801F05C
:10063C000CFBE6E07B68052B2AD100224FF480717D
:10064C00584801F002FB01224FF40071554801F0AB
:10065C00FCFA00224FF48061524801F0F6FA0022B5
:10066C004FF400614F4801F0F0FA01224FF4805131
:10067C004C4801F0EAFA00224FF40051494801F0CD
:10068C00E4FA00224FF48041464801F0DEFAB8E06B
:10069C007B68062B2AD100224FF48071414801F06F
:1006AC00D4FA01224FF400713E4801F0CEFA002238
:1006BC004FF480613B4801F0C8FA00224FF400610E
:1006CC00384801F0C2FA00224FF48051354801F04D
:1006DC00BCFA00224FF40051324801F0B6FA002265
:1006EC004FF480412F4801F0B0FA8AE07B68072B69
:1006FC002AD100224FF480712A4801F0A6FA002278
:10070C004FF40071274801F0A0FA00224FF48061E9
:10071C00244801F09AFA01224FF40061214801F0BB
:10072C0094FA01224FF480511E4801F08EFA0122F6
:10073C004FF400511B4801F088FA01224FF480411C
:10074C00184801F082FA5CE07B68082B2CD100225F
:10075C004FF48071134801F078FA00224FF40071C5
:10076C00104801F072FA00224FF480610D4801F03C
:10077C006CFA00224FF400610A4801F066FA00227C
:10078C004FF48051074801F060FA00224FF40051F9
:10079C00044801F05AFA00224FF48041014801F05C
:1007AC0054FA2EE0000801407B68092B29D1002265
:1007BC004FF48071154801F048FA00224FF4007193
:1007CC00124801F042FA00224FF480610F4801F008
:1007DC003CFA00224FF400610C4801F036FA012279
:1007EC004FF48051094801F030FA00224FF40051C7
:1007FC00064801F02AFA00224FF48041034801F028
:10080C0024FA00BF0837BD4680BD00BF0008014078
:10081C0080B400AF064B1B68012B04D1044B0022A3
:10082C001A60012300E000231846BD4680BC7047C7
:10083C007000002080B400AF034B01221A6000BF8F
:10084C00BD4680BC704700BF7000002080B500AF73
:10085C00224B1B68224A1360224B1B681F4A1360F1
:10086C004FF40051204801F0D9F903461A461D4BAC
:10087C001A601B4B1A68194B1B689A422BD1174BE9
:10088C001A68184B1B689A4225D1184B1A68154BDD
:10089C001B689A420DD0134B1B68144A1360114B02
:1008AC001B68002B17D1FFF7C5FF114BC8221A602C
:1008BC0011E00F4B1B68013B0D4A13600C4B1B687E
:1008CC00002B08D1074B1B68002B01D1FFF7B2FF9F
:1008DC00074BC8221A6000BF80BD00BF0400002077
:1008EC000000002008000020001001400C00002037
:1008FC001000002080B400AF064B1B68012B04D104
:10090C00044B00221A60012300E000231846BD4668
:10091C0080BC70477400002080B400AF034B0122F0
:10092C001A6000BFBD4680BC704700BF7400002039
:10093C0080B500AF224B1B68224A1360224B1B6808
:10094C001F4A13604FF48041204801F067F90346B9
:10095C001A461D4B1A601B4B1A68194B1B689A429E
:10096C002BD1174B1A68184B1B689A4225D1184B80
:10097C001A68154B1B689A420DD0134B1B68144A0E
:10098C001360114B1B68002B17D1FFF7C5FF114BE0
:10099C00C8221A6011E00F4B1B68013B0D4A136013
:1009AC000C4B1B68002B08D1074B1B68002B01D18B
:1009BC00FFF7B2FF074BC8221A6000BF80BD00BF13
:1009CC0018000020140000201C0000200010014022
:1009DC00200000202400002080B400AF064B1B68D0
:1009EC00012B04D1044B00221A60012300E00023E8
:1009FC001846BD4680BC70477800002080B400AF1C
:100A0C00034B01221A6000BFBD4680BC704700BF7B
:100A1C007800002080B500AF224B1B68224A13607F
:100A2C00224B1B681F4A13604FF40041204801F011
:100A3C00F5F803461A461D4B1A601B4B1A68194BE6
:100A4C001B689A422BD1174B1A68184B1B689A4299
:100A5C0025D1184B1A68154B1B689A420DD0134BB5
:100A6C001B68144A1360114B1B68002B17D1FFF73E
:100A7C00C5FF114BC8221A6011E00F4B1B68013BDC
:100A8C000D4A13600C4B1B68002B08D1074B1B68DD
:100A9C00002B01D1FFF7B2FF074BC8221A6000BF31
:100AAC0080BD00BF2C00002028000020300000205A
:100ABC0000100140340000203800002080B500AF49
:100ACC00534B1B68013B032B00F2998001A252F897
:100ADC0023F000BFF10A0008210B00086F0B00087F
:100AEC00BD0B0008012220214A4801F0AEF801227A
:100AFC008021484801F0A9F801224021454801F025
:100B0C00A4F8434B02221A60434B1B68184600F0B2
:100B1C0001FC7BE0002220213E4801F096F80122E6
:100B2C0080213C4801F091F801224021394801F024
:100B3C008CF83A4B1B68012B07D1354B03221A60FA
:100B4C00374B1B68184600F0E5FBFFF761FE0346C8
:100B5C00012B56D12E4B16221A60324B00221A60F2
:100B6C004FE0002280212B4801F06FF80122202158
:100B7C00284801F06AF801224021264801F065F866
:100B8C00264B1B68012B07D1214B04221A60264BE4
:100B9C001B68184600F0BEFBFFF73AFE0346012B1C
:100BAC0031D11B4B16221A601E4B00221A602AE010
:100BBC0000224021174801F048F801222021154855
:100BCC0001F043F801228021124801F03EF8134B4A
:100BDC001B68012B07D10E4B02221A600E4B1B68AF
:100BEC00184600F097FBFFF713FE0346012B0CD1C0
:100BFC00074B16221A600B4B00221A6005E000BF4F
:100C0C0004E000BF02E000BF00E000BF00BF80BDF9
:100C1C0080000020000801403C0000208C000020D7
:100C2C0040000020880000204400002080B500AF68
:100C3C00524B1B68013B032B00F2978001A252F828
:100C4C0023F000BF610C0008950C0008E10C0008B3
:100C5C002B0D000801224FF48061494800F0F5FF8C
:100C6C0001224FF48051464800F0EFFF01224FF46F
:100C7C000061434800F0E9FF404B03221A604FF437
:100C8C00967000F0BFFB77E000224FF480613C4887
:100C9C0000F0DBFF01224FF48051394800F0D5FF02
:100CAC0001224FF40061364800F0CFFF354B1B6832
:100CBC00012B06D1314B03221A604FF4967000F0D1
:100CCC00A1FBFFF7A5FD0346012B50D12B4B1622A0
:100CDC001A604CE000224FF48051294800F0B5FF17
:100CEC0001224FF48061264800F0AFFF01224FF43F
:100CFC000061234800F0A9FF224B1B68012B05D192
:100D0C001E4B04221A60C82000F07CFBFFF780FD0C
:100D1C000346012B2DD1194B16221A6029E0002213
:100D2C004FF40061164800F090FF01224FF48061EF
:100D3C00134800F08AFF01224FF48051104800F054
:100D4C0084FF104B1B68012B06D10C4B02221A603E
:100D5C004FF4FA7000F056FBFFF75AFD0346012BD7
:100D6C0009D1064B16221A6005E000BF04E000BF53
:100D7C0002E000BF00E000BF00BF80BD8400002087
:100D8C00000C01409400002080B500AF00F0D2FAB6
:100D9C000346012B1ED120210F4800F06EFF0122CB
:100DAC0080210D4800F051FF012240210A4800F03B
:100DBC004CFF4FF48061094800F05FFF01224FF4B3
:100DCC008051064800F041FF01224FF400610348B6
:100DDC0000F03BFF00BF80BD00080140000C01404B
:100DEC0080B500AF00F0A6FA0346012B1ED180217E
:100DFC000F4800F042FF012240210D4800F025FF72
:100E0C00012220210A4800F020FF4FF480510948AC
:100E1C0000F033FF01224FF40061064800F015FF8B
:100E2C0001224FF48061034800F00FFF00BF80BD2A
:100E3C0000080140000C014080B500AF00F07AFAC8
:100E4C000346012B1ED14FF400610F4800F015FF33
:100E5C0001224FF480610C4800F0F7FE01224FF4A0
:100E6C008051094800F0F1FE4021084800F005FFD0
:100E7C0001222021054800F0E8FE012280210348D0
:100E8C0000F0E3FE00BF80BD000C014000080140F3
:100E9C0080B500AF694B1B68182B00F08780182BAE
:100EAC0000F3C380162B02D0172B40D0BDE0634B50
:100EBC001B68634A1360FFF767FF624B00221A60DE
:100ECC00FFF718FD0346012B17D15F4B1B686433EA
:100EDC005D4A13605D4B01221A605B4B1B68B3F5D6
:100EEC007A7F03DB584B4FF461721A60564B1B68C8
:100EFC00002B02DC544B00221A60FFF76DFD0346F9
:100F0C00012B07D1514B00221A604F4B1B6818461E
:100F1C0000F000FAFFF77CFC0346012B40F08780C1
:100F2C00464B17221A60484B00221A607FE0434B55
:100F3C001B68434A1360FFF753FF424B00221A60B1
:100F4C00FFF7D8FC0346012B17D1404B01221A6046
:100F5C003D4B1B6864333C4A13603B4B1B68B3F539
:100F6C007A7F03DB384B4FF461721A60364B1B6887
:100F7C00002B02DC344B00221A60FFF72DFD0346D8
:100F8C00012B07D1314B00221A602F4B1B681846DE
:100F9C0000F0C0F9FFF73CFC0346012B49D1274B6D
:100FAC0018221A60284B00221A6042E0234B1B685F
:100FBC00234A1360FFF740FF224B00221A60FFF711
:100FCC0099FC0346012B17D1204B01221A601E4BB2
:100FDC001B6864331C4A13601B4B1B68B3F57A7F88
:100FEC0003DB194B4FF461721A60174B1B68002B13
:100FFC0002DC154B00221A60FFF7EEFC0346012BB6
:10100C0007D1124B00221A600F4B1B68184600F0D8
:10101C0081F9FFF7FDFB0346012B0CD1074B012295
:10102C001A60074B01221A6005E000BF04E000BF04
:10103C0002E000BF00E000BF00BF80BD80000020C8
:10104C00840000207C0000208800002098000020F4
:10105C0080B582B000AF78600A4B1B68002B01D1C1
:10106C0000F0A6F900F082F900F0DCF900F01EFAAD
:10107C00FFF75EFCFFF7CEFCFFF7E8FB00BF08377D
:10108C00BD4680BD9800002080B500AF00F0DCFAB2
:10109C0000F030F800F0B6F800F068F8114801F0F4
:1010AC003DFA114B01221A60104B01221A600022EA
:1010BC0002210F4800F0C9FD002204210C4800F069
:1010CC00C4FD002208210A4800F0BFFD00221021B7
:1010DC00074800F0BAFDFFF7F1FCFFF7A7FDFFF79B
:1010EC00D7FEE4E79C000020800000208400002054
:1010FC000008014080B590B000AF07F1180328221A
:10110C000021184601F0C2FD3B1D00221A605A60F6
:10111C009A60DA601A610223BB610123BB6210235F
:10112C00FB6200237B6307F11803184600F0BEFD39
:10113C000346002B01D000F0D7F80F237B6000236F
:10114C00BB600023FB6000233B6100237B613B1DE4
:10115C000021184601F02AF80346002B01D000F0BC
:10116C00C3F800BF4037BD4680BD000080B586B0D7
:10117C0000AF07F1080300221A605A609A60DA6027
:10118C003B4600221A605A601D4B4FF080421A6099
:10119C001B4B41F63F725A60194B00229A60184B58
:1011AC000922DA60164B00221A61154B00229A6153
:1011BC00134801F063F90346002B01D000F094F8BA
:1011CC004FF48053BB6007F1080319460C4801F03B
:1011DC00F9FA0346002B01D000F086F800233B609F
:1011EC0000237B603B461946054801F0C1FC0346D1
:1011FC00002B01D000F078F800BF1837BD4680BD39
:10120C009C00002080B588B000AF07F110030022CD
:10121C001A605A609A60DA602F4B9B692E4A43F031
:10122C00100393612C4B9B6903F01003FB60FB686C
:10123C00294B9B69284A43F004039361264B9B6915
:10124C0003F00403BB60BB68234B9B69224A43F049
:10125C0008039361204B9B6903F008037B607B6858
:10126C00002247F6FE711D4800F0EFFC002241F60B
:10127C007F411B4800F0E9FC4FF460433B610023C5
:10128C007B610123BB6107F110031946154800F07F
:10129C004BFB47F6FE733B6101237B610023BB6173
:1012AC000223FB6107F1100319460C4800F03CFBCC
:1012BC0041F67F433B6101237B610023BB61022329
:1012CC00FB6107F110031946054800F02DFB00BF28
:1012DC002037BD4680BD00BF001002400008014011
:1012EC00000C01400010014080B400AF72B600BF8A
:1012FC00FEE7000080B400AF044B00221A60044BE0
:10130C0000221A6000BFBD4680BC704788000020D8
:10131C008C00002080B582B000AF7860FFF7EAFF48
:10132C00034A7B68136000BF0837BD4680BD00BF11
:10133C008800002080B400AF0A4B1A680A4B83FB6C
:10134C0002131911D317CB1A322101FB03F3D31A51
:10135C00002B01D1012300E000231846BD4680BCC0
:10136C00704700BF880000201F85EB5180B500AF8F
:10137C000D4B1A680D4B83FB02131911D317CB1AA3
:10138C00322101FB03F3D31A002B0AD1064B1B6845
:10139C00064A82FB03125211DB17D31A1846FEF7CA
:1013AC00CFFE00BF80BD00BF880000201F85EB5121
:1013BC0080B400AF094B1B68002B0BDD074B1B687F
:1013CC00013B064A1360054B1B68002B02DC044BE7
:1013DC0001221A6000BFBD4680BC70478800002007
:1013EC008C00002080B400AF044B00221A60044B28
:1013FC0000221A6000BFBD4680BC704790000020E0
:10140C009400002080B582B000AF7860FFF7EAFF4F
:10141C00034A7B68136000BF0837BD4680BD00BF20
:10142C009000002080B500AF1B4B1A681B4B1B684B
:10143C009A4219D01A4B1A681A4B83FB0213591192
:10144C00D317CB1A642101FB03F3D31A002B21D140
:10145C00134B1B68134A82FB03125211DB17D31A6E
:10146C001846FEF7FDFF15E00B4B1A680B4B1B687B
:10147C009A420FD1084B1A680B4B83FB021399103D
:10148C00D317C91A0B469B000B445B00D11A0846B4
:10149C00FEF7E6FF00BF80BD800000208400002026
:1014AC00900000201F85EB516766666680B400AF24
:1014BC00094B1B68002B0BDD074B1B68013B064AD5
:1014CC001360054B1B68002B02DC044B01221A60D5
:1014DC0000BFBD4680BC70479000002094000020E7
:1014EC0080B485B000AF154B9B69144A43F00103DF
:1014FC009361124B9B6903F00103BB60BB680F4BFC
:10150C00DB690E4A43F08053D3610C4BDB6903F06B
:10151C0080537B607B680A4B5B68FB60FB6823F045
:10152C00E063FB60FB6843F08063FB60044AFB688C
:10153C00536000BF1437BD4680BC7047001002409A
:10154C000000014080B584B000AF78607B681B68F8
:10155C00B3F1804F13D10C4BDB690B4A43F0010301
:10156C00D361094BDB6903F00103FB60FB680022CC
:10157C0000211C2000F0A1F91C2000F0BAF900BFDA
:10158C001037BD4680BD00BF0010024080B400AFD4
:10159C00FEE780B400AFFEE780B400AFFEE780B496
:1015AC0000AFFEE780B400AFFEE780B400AF00BF31
:1015BC00BD4680BC704780B400AF00BFBD4680BC48
:1015CC00704780B400AF00BFBD4680BC704780B58B
:1015DC0000AF00F07FF800BF80BD000080B500AF09
:1015EC00024800F0E7FF00BF80BD00BF9C00002058
:1015FC0080B400AF00BFBD4680BC70470C480D499D
:10160C000D4A002302E0D458C4500433C4188C4251
:10161C00F9D30A4A0A4C002301E013600432A242B7
:10162C00FBD3FFF7E5FF01F00DFBFFF72DFD704736
:10163C000000002054000020E82C0008540000207A
:10164C00E8000020FEE7000080B500AF084B1B68E7
:10165C00074A43F010031360032000F023F90F2016
:10166C0000F008F8FFF73CFF0023184680BD00BFD0
:10167C000020024080B582B000AF7860124B1A682F
:10168C00124B1B7819464FF47A73B3FBF1F3B2FB90
:10169C00F3F3184600F03BF90346002B01D001236D
:1016AC000EE07B680F2B0AD8002279684FF0FF30D0
:1016BC0000F003F9064A7B681360002300E0012365
:1016CC0018460837BD4680BD480000205000002059
:1016DC004C00002080B400AF054B1B781A46054B1C
:1016EC001B681344034A136000BFBD4680BC70479F
:1016FC0050000020E400002080B400AF024B1B68B7
:10170C001846BD4680BC7047E400002080B485B00C
:10171C0000AF78607B6803F00703FB600C4BDB6861
:10172C00BB60BA684FF6FF031340BB60FB681A023C
:10173C00BB68134343F0BF6343F40033BB60044AFC
:10174C00BB68D36000BF1437BD4680BC704700BF78
:10175C0000ED00E080B400AF044BDB681B0A03F023
:10176C0007031846BD4680BC704700BF00ED00E083
:10177C0080B483B000AF0346FB7197F90730002BA0
:10178C000BDBFB7903F01F02064997F907305B0965
:10179C00012000FA02F241F8232000BF0C37BD46AD
:1017AC0080BC704700E100E080B483B000AF03461A
:1017BC003960FB7197F90730002B0ADB3B68DAB212
:1017CC000C4997F907301201D2B20B4483F800236D
:1017DC000AE03B68DAB20849FB7903F00F03043BDB
:1017EC001201D2B20B441A7600BF0C37BD4680BC36
:1017FC00704700BF00E100E000ED00E080B489B06C
:10180C0000AFF860B9607A60FB6803F00703FB6116
:10181C00FB69C3F10703042B28BF0423BB61FB69DD
:10182C000433062B02D9FB69033B00E000237B61E8
:10183C004FF0FF32BB6902FA03F3DA43BB681A407C
:10184C007B699A404FF0FF317B6901FA03F3D9436E
:10185C007B680B40134318462437BD4680BC704749
:10186C0080B582B000AF78607B68013BB3F1807FBC
:10187C0001D301230FE00A4A7B68013B53600F211F
:10188C004FF0FF30FFF790FF054B00229A60044B9E
:10189C0007221A60002318460837BD4680BD00BFDA
:1018AC0010E000E080B582B000AF78607868FFF798
:1018BC002DFF00BF0837BD4680BD80B586B000AF98
:1018CC000346B9607A60FB7300237B61FFF742FF2C
:1018DC0078617A68B9687869FFF790FF024697F9E2
:1018EC000F3011461846FFF75FFF00BF1837BD4693
:1018FC0080BD80B582B000AF0346FB7197F907300D
:10190C001846FFF735FF00BF0837BD4680BD80B5D0
:10191C0082B000AF78607868FFF7A2FF03461846E4
:10192C000837BD4680BD000080B48BB000AF786036
:10193C00396000237B6200233B6248E101227B6A11
:10194C0002FA03F3FB613B681B68FA691340BB6145
:10195C00BA69FB699A4240F037813B685B68A34ADD
:10196C0093425ED0A14A934275D8A14A934258D073
:10197C009F4A93426FD89F4A934252D09D4A9342BA
:10198C0069D89D4A93424CD09B4A934263D89B4A58
:10199C00934246D0994A93425DD8122B2AD8122BE7
:1019AC0059D801A252F823F02F1A0008091A00087E
:1019BC001B1A00085D1A0008631A0008631A000855
:1019CC00631A0008631A0008631A0008631A0008F7
:1019DC00631A0008631A0008631A0008631A0008E7
:1019EC00631A0008631A0008631A0008111A000829
:1019FC00251A0008824A934213D02CE03B68DB681E
:101A0C003B6229E03B68DB6804333B6224E03B68C3
:101A1C00DB6808333B621FE03B68DB680C333B62DE
:101A2C001AE03B689B68002B02D104233B6213E055
:101A3C003B689B68012B05D108233B627B68FA69E4
:101A4C001A6109E008233B627B68FA695A6103E07A
:101A5C0000233B6200E000BFBB69FF2B01D87B6811
:101A6C0001E07B6804337B61BB69FF2B02D87B6A86
:101A7C009B0002E07B6A083B9B003B617B691A6818
:101A8C000F213B6901FA03F3DB431A40396A3B69C6
:101A9C0001FA03F31A437B691A603B685B6803F035
:101AAC008053002B00F09080564B9B69554A43F0B5
:101ABC0001039361534B9B6903F00103BB60BB684B
:101ACC00514A7B6A9B08023352F82330FB607B6AD5
:101ADC0003F003039B000F2202FA03F3DB43FA68C3
:101AEC001340FB607B68494A93420DD07B68484A9F
:101AFC00934207D07B68474A934201D1022304E00A
:101B0C00032302E0012300E000237A6A02F00302BF
:101B1C0092009340FA681343FB603B497B6A9B0835
:101B2C000233FA6841F823203B685B6803F4803386
:101B3C00002B06D0384B1A683749BB6913430B602E
:101B4C0006E0354B1A68BB69DB43334913400B6025
:101B5C003B685B6803F40033002B06D02E4B5A68AD
:101B6C002D49BB6913434B6006E02B4B5A68BB698C
:101B7C00DB43294913404B603B685B6803F48013DB
:101B8C00002B06D0244B9A682349BB6913438B6006
:101B9C0006E0214B9A68BB69DB431F4913408B60FD
:101BAC003B685B6803F40013002B06D01A4BDA6811
:101BBC001949BB691343CB6006E0174BDA68BB6964
:101BCC00DB4315491340CB607B6A01337B623B6876
:101BDC001A687B6A22FA03F3002B7FF4AFAE00BFC6
:101BEC0000BF2C37BD4680BC704700BF00003210D0
:101BFC000000311000002210000021100000121013
:101C0C0000001110001002400000014000080140CB
:101C1C00000C0140001001400004014080B485B06C
:101C2C0000AF78600B467B807B689A687B8813409A
:101C3C00002B02D00123FB7301E00023FB73FB7B21
:101C4C0018461437BD4680BC704780B483B000AFD3
:101C5C0078600B467B8013467B707B78002B03D01F
:101C6C007A887B681A6103E07B881A047B681A61A6
:101C7C0000BF0C37BD4680BC704780B485B000AF48
:101C8C0078600B467B807B68DB68FB607A88FB683E
:101C9C0013401A04FB68D9437B880B401A437B68BA
:101CAC001A6100BF1437BD4680BC704780B586B042
:101CBC0000AF78607B68002B01D101236CE27B685C
:101CCC001B6803F00103002B00F08780924B5B68CC
:101CDC0003F00C03042B0CD08F4B5B6803F00C034C
:101CEC00082B12D18C4B5B6803F48033B3F5803F27
:101CFC000BD1894B1B6803F40033002B6CD07B6831
:101D0C005B68002B68D1012346E27B685B68B3F506
:101D1C00803F06D1804B1B687F4A43F480331360AD
:101D2C002EE07B685B68002B0CD17B4B1B687A4ADE
:101D3C0023F480331360784B1B68774A23F4802399
:101D4C0013601DE07B685B68B3F5A02F0CD1724B60
:101D5C001B68714A43F4802313606F4B1B686E4AF7
:101D6C0043F4803313600BE06B4B1B686A4A23F41B
:101D7C0080331360684B1B68674A23F4802313601D
:101D8C007B685B68002B13D0FFF7B6FC386108E06A
:101D9C00FFF7B2FC02463B69D31A642B01D903232B
:101DAC00FAE15D4B1B6803F40033002BF0D014E018
:101DBC00FFF7A2FC386108E0FFF79EFC02463B6986
:101DCC00D31A642B01D90323E6E1534B1B6803F4AC
:101DDC000033002BF0D100E000BF7B681B6803F0E0
:101DEC000203002B63D04C4B5B6803F00C03002BFD
:101DFC000BD0494B5B6803F00C03082B1CD1464BF2
:101E0C005B6803F48033002B16D1434B1B6803F043
:101E1C000203002B05D07B681B69012B01D0012329
:101E2C00BAE13D4B1B6823F0F8027B685B69DB0071
:101E3C00394913430B603AE07B681B69002B20D0B7
:101E4C00364B01221A60FFF757FC386108E0FFF7A8
:101E5C0053FC02463B69D31A022B01D903239BE1A5
:101E6C002D4B1B6803F00203002BF0D02A4B1B6890
:101E7C0023F0F8027B685B69DB00274913430B6096
:101E8C0015E0264B00221A60FFF736FC386108E09B
:101E9C00FFF732FC02463B69D31A022B01D903230C
:101EAC007AE11D4B1B6803F00203002BF0D17B6819
:101EBC001B6803F00803002B3AD07B689B69002B4E
:101ECC0019D0174B01221A60FFF716FC386108E095
:101EDC00FFF712FC02463B69D31A022B01D90323EC
:101EEC005AE10D4B5B6A03F00203002BF0D001208A
:101EFC0000F0A6FA1CE00A4B00221A60FFF7FCFB6C
:101F0C0038610FE0FFF7F8FB02463B69D31A022B4E
:101F1C0008D9032340E100BF0010024000004242F8
:101F2C00800442429E4B5B6A03F00203002BE9D112
:101F3C007B681B6803F00403002B00F0A6800023D1
:101F4C00FB75974BDB6903F08053002B0DD1944B41
:101F5C00DB69934A43F08053D361914BDB6903F007
:101F6C008053BB60BB680123FB758E4B1B6803F46D
:101F7C008073002B18D18B4B1B688A4A43F48073F7
:101F8C001360FFF7B9FB386108E0FFF7B5FB0246B9
:101F9C003B69D31A642B01D90323FDE0814B1B68E9
:101FAC0003F48073002BF0D07B68DB68012B06D127
:101FBC007B4B1B6A7A4A43F0010313622DE07B686A
:101FCC00DB68002B0CD1764B1B6A754A23F001039E
:101FDC001362734B1B6A724A23F0040313621CE0F6
:101FEC007B68DB68052B0CD16D4B1B6A6C4A43F08C
:101FFC00040313626A4B1B6A694A43F001031362C0
:10200C000BE0674B1B6A664A23F001031362644BB7
:10201C001B6A634A23F0040313627B68DB68002BA2
:10202C0015D0FFF769FB38610AE0FFF765FB024644
:10203C003B69D31A41F28832934201D90323ABE0B6
:10204C00574B1B6A03F00203002BEED014E0FFF792
:10205C0053FB38610AE0FFF74FFB02463B69D31A8A
:10206C0041F28832934201D9032395E04C4B1B6A11
:10207C0003F00203002BEED1FB7D012B05D1484B65
:10208C00DB69474A23F08053D3617B68DB69002B03
:10209C0000F08180424B5B6803F00C03082B61D08D
:1020AC007B68DB69022B46D13F4B00221A60FFF79D
:1020BC0023FB386108E0FFF71FFB02463B69D31A8C
:1020CC00022B01D9032367E0354B1B6803F0007327
:1020DC00002BF0D17B681B6AB3F5803F08D1304BE5
:1020EC005B6823F400327B689B682D4913434B607B
:1020FC002B4B5B6823F474127B68196A7B685B6AF0
:10210C000B43274913434B60274B01221A60FFF7FF
:10211C00F3FA386108E0FFF7EFFA02463B69D31A8D
:10212C00022B01D9032337E01D4B1B6803F000730E
:10213C00002BF0D02FE01C4B00221A60FFF7DCFACA
:10214C00386108E0FFF7D8FA02463B69D31A022B34
:10215C0001D9032320E0124B1B6803F00073002B02
:10216C00F0D118E07B68DB69012B01D1012313E06E
:10217C000B4B5B68FB60FB6803F480327B681B6A6B
:10218C009A4206D1FB6803F470127B685B6A9A4230
:10219C0001D0012300E0002318461837BD4680BD4E
:1021AC0000100240007000406000424280B584B0D4
:1021BC0000AF786039607B68002B01D10123D0E03F
:1021CC006A4B1B6803F007033A689A4210D9674BB5
:1021DC001B6823F0070265493B6813430B60634B94
:1021EC001B6803F007033A689A4201D00123B8E058
:1021FC007B681B6803F00203002B20D07B681B68F4
:10220C0003F00403002B05D0594B5B68584A43F488
:10221C00E06353607B681B6803F00803002B05D058
:10222C00534B5B68524A43F460535360504B5B68AA
:10223C0023F0F0027B689B684D4913434B607B682D
:10224C001B6803F00103002B40D07B685B68012BFB
:10225C0007D1474B1B6803F40033002B15D1012326
:10226C007FE07B685B68022B07D1414B1B6803F056
:10227C000073002B09D1012373E03D4B1B6803F065
:10228C000203002B01D101236BE0394B5B6823F077
:10229C0003027B685B68364913434B60FFF72CFAEB
:1022AC00F8600AE0FFF728FA0246FB68D31A41F2FD
:1022BC008832934201D9032353E02D4B5B6803F022
:1022CC000C027B685B689B009A42EBD1274B1B6826
:1022DC0003F007033A689A4210D2244B1B6823F090
:1022EC00070222493B6813430B60204B1B6803F029
:1022FC0007033A689A4201D0012332E07B681B68DD
:10230C0003F00403002B08D0194B5B6823F4E06244
:10231C007B68DB68164913434B607B681B6803F0D2
:10232C000803002B09D0124B5B6823F460527B68C6
:10233C001B69DB000E4913434B6000F021F8024689
:10234C000B4B5B681B0903F00F030A49CB5C22FAA9
:10235C0003F3094A1360094B1B681846FFF78AF907
:10236C00002318461037BD4680BD00BF0020024038
:10237C0000100240D02C0008480000204C00002027
:10238C0090B48AB000AF2A4B3C1D0FCB84E80F00F1
:10239C0040F201233B800023FB610023BB6100233F
:1023AC007B6200237B6100233B62224B5B68FB61F9
:1023BC00FB6903F00C03042B02D0082B03D02DE097
:1023CC001D4B3B622DE0FB699B0C03F00F0307F1E7
:1023DC002802134413F8243C7B61FB6903F480331B
:1023EC00002B13D0134B5B685B0C03F0010307F15C
:1023FC002802134413F8283CBB617B690E4A02FB8C
:10240C0003F2BB69B2FBF3F37B6204E07B690B4A1A
:10241C0002FB03F37B627B6A3B6202E0064B3B628E
:10242C0000BF3B6A18462837BD4690BC704700BFBA
:10243C00C02C00080010024000127A0000093D0078
:10244C0080B485B000AF78600A4B1B680A4AA2FBC7
:10245C0003235B0A7A6802FB03F3FB6000BFFB6893
:10246C005A1EFA60002BF9D100BF00BF1437BD46CD
:10247C0080BC704748000020D34D621080B582B0FC
:10248C0000AF78607B68002B01D1012341E07B68B1
:10249C0093F83D30DBB2002B06D17B68002283F829
:1024AC003C207868FFF74EF87B68022283F83D20C9
:1024BC007B681A687B6804331946104600F06AFA88
:1024CC007B68012283F846207B68012283F83E203A
:1024DC007B68012283F83F207B68012283F840202F
:1024EC007B68012283F841207B68012283F842201B
:1024FC007B68012283F843207B68012283F8442007
:10250C007B68012283F845207B68012283F83D20FB
:10251C00002318460837BD4680BD000080B485B046
:10252C0000AF78607B6893F83D30DBB2012B01D0B3
:10253C00012335E07B68022283F83D207B681B6811
:10254C00DA687B681B6842F00102DA607B681B6802
:10255C00164A934209D07B681B68B3F1804F04D0B4
:10256C007B681B68124A934211D17B681B689B687D
:10257C0003F00703FB60FB68062B10D07B681B681D
:10258C001A687B681B6842F001021A6007E07B68DE
:10259C001B681A687B681B6842F001021A600023F2
:1025AC0018461437BD4680BC704700BF002C014054
:1025BC000004004080B582B000AF78607B681B6877
:1025CC001B6903F00203022B22D17B681B68DB68BA
:1025DC0003F00203022B1BD17B681B686FF0020215
:1025EC001A617B6801221A777B681B689B6903F070
:1025FC000303002B03D0786800F0B1F905E078688C
:10260C0000F0A4F9786800F0B3F97B6800221A771F
:10261C007B681B681B6903F00403042B22D17B68C5
:10262C001B68DB6803F00403042B1BD17B681B685D
:10263C006FF004021A617B6802221A777B681B68B0
:10264C009B6903F44073002B03D0786800F087F982
:10265C0005E0786800F07AF9786800F089F97B6811
:10266C0000221A777B681B681B6903F00803082B90
:10267C0022D17B681B68DB6803F00803082B1BD195
:10268C007B681B686FF008021A617B6804221A775A
:10269C007B681B68DB6903F00303002B03D07868AD
:1026AC0000F05DF905E0786800F050F9786800F00A
:1026BC005FF97B6800221A777B681B681B6903F043
:1026CC001003102B22D17B681B68DB6803F010030E
:1026DC00102B1BD17B681B686FF010021A617B6892
:1026EC0008221A777B681B68DB6903F44073002BA4
:1026FC0003D0786800F033F905E0786800F026F92B
:10270C00786800F035F97B6800221A777B681B68C3
:10271C001B6903F00103012B0ED17B681B68DB687E
:10272C0003F00103012B07D17B681B686FF00102DA
:10273C001A617868FEF78CFC7B681B681B6903F0D8
:10274C008003802B0ED17B681B68DB6803F0800351
:10275C00802B07D17B681B686FF080021A61786848
:10276C0000F067FA7B681B681B6903F04003402B81
:10277C000ED17B681B68DB6803F04003402B07D14C
:10278C007B681B686FF040021A61786800F0F9F8FA
:10279C007B681B681B6903F02003202B0ED17B6820
:1027AC001B68DB6803F02003202B07D17B681B68B8
:1027BC006FF020021A61786800F032FA00BF083717
:1027CC00BD4680BD80B584B000AF786039607B6851
:1027DC0093F83C30012B01D10223B3E07B6801223A
:1027EC0083F83C207B68022283F83D207B681B68C1
:1027FC009B68FB60FB6823F07703FB60FB6823F4AA
:10280C007F43FB607B681B68FA689A603B681B68B7
:10281C00B3F5005F3ED0B3F5005F00F28780B3F5EF
:10282C00805F00F08580B3F5805F7FD8702B1AD065
:10283C00702B7BD8602B50D0602B77D8502B3CD092
:10284C00502B73D8402B58D0402B6FD8302B64D0E2
:10285C00302B6BD8202B60D0202B67D8002B5CD072
:10286C00102B5AD062E07B6818683B6899683B680B
:10287C005A683B68DB6800F05CF97B681B689B68F6
:10288C00FB60FB6843F07703FB607B681B68FA68AE
:10289C009A604EE07B6818683B6899683B685A6898
:1028AC003B68DB6800F045F97B681B689A687B68BD
:1028BC001B6842F480429A603BE07B6818683B6876
:1028CC0059683B68DB681A4600F0BCF87B681B68EB
:1028DC005021184600F013F92BE07B6818683B6810
:1028EC0059683B68DB681A4600F0DAF87B681B68AD
:1028FC006021184600F003F91BE07B6818683B6800
:10290C0059683B68DB681A4600F09CF87B681B68CA
:10291C004021184600F0F3F80BE07B681A683B681E
:10292C001B681946104600F0EAF802E000BF00E010
:10293C0000BF7B68012283F83D207B68002283F86E
:10294C003C20002318461037BD4680BD80B483B0B0
:10295C0000AF786000BF0C37BD4680BC704780B4B8
:10296C0083B000AF786000BF0C37BD4680BC7047A9
:10297C0080B483B000AF786000BF0C37BD4680BC1C
:10298C00704780B483B000AF786000BF0C37BD4691
:10299C0080BC704780B485B000AF786039607B68CC
:1029AC001B68FB607B68254A934207D07B68B3F1B8
:1029BC00804F03D07B68224A934208D1FB6823F0F6
:1029CC007003FB603B685B68FA681343FB607B68D1
:1029DC001A4A934207D07B68B3F1804F03D07B68CF
:1029EC00174A934208D1FB6823F44073FB603B68A1
:1029FC00DB68FA681343FB60FB6823F080023B68DA
:102A0C005B691343FB607B68FA681A603B689A68E1
:102A1C007B68DA623B681A687B689A627B68074A53
:102A2C00934203D13B681A697B681A637B68012265
:102A3C005A6100BF1437BD4680BC7047002C014062
:102A4C000004004080B487B000AFF860B9607A60D1
:102A5C00FB681B6A7B61FB681B6A23F00102FB6845
:102A6C001A62FB689B693B613B6923F0F0033B6195
:102A7C007B681B013A6913433B617B6923F00A03B2
:102A8C007B617A69BB6813437B61FB683A699A6125
:102A9C00FB687A691A6200BF1C37BD4680BC704760
:102AAC0080B487B000AFF860B9607A60FB681B6ACD
:102ABC0023F01002FB681A62FB689B697B61FB6860
:102ACC001B6A3B617B6923F470437B617B681B034E
:102ADC007A6913437B613B6923F0A0033B61BB68BC
:102AEC001B013A6913433B61FB687A699A61FB6885
:102AFC003A691A6200BF1C37BD4680BC704780B46F
:102B0C0085B000AF786039607B689B68FB60FB68C0
:102B1C0023F07003FB603A68FB68134343F0070330
:102B2C00FB607B68FA689A6000BF1437BD4680BCB6
:102B3C00704780B487B000AFF860B9607A603B60D2
:102B4C00FB689B687B617B6923F47F437B613B68FB
:102B5C001A027B681A43BB6813437A6913437B617F
:102B6C00FB687A699A6000BF1C37BD4680BC704711
:102B7C0080B485B000AF786039607B6893F83C30E6
:102B8C00012B01D1022341E07B68012283F83C2018
:102B9C007B68022283F83D207B681B685B68FB60C6
:102BAC007B681B689B68BB60FB6823F07003FB6051
:102BBC003B681B68FA681343FB607B681B68FA6808
:102BCC005A607B681B68144A934209D07B681B6867
:102BDC00B3F1804F04D07B681B68104A93420CD130
:102BEC00BB6823F08003BB603B685B68BA68134327
:102BFC00BB607B681B68BA689A607B68012283F8AB
:102C0C003D207B68002283F83C20002318461437B3
:102C1C00BD4680BC704700BF002C01400004004042
:102C2C0080B483B000AF786000BF0C37BD4680BC69
:102C3C00704780B483B000AF786000BF0C37BD46DE
:102C4C0080BC704770B500260C4D0D4C641BA41055
:102C5C00A64209D100F022F800260A4D0A4C641B4A
:102C6C00A410A64205D170BD55F8043B9847013617
:102C7C00EEE755F8043B98470136F2E7E02C0008E4
:102C8C00E02C0008E02C0008E42C00080346024469
:102C9C00934200D1704703F8011BF9E7F8B500BF68
:102CAC00F8BC08BC9E467047F8B500BFF8BC08BC21
:042CBC009E46704779
:102CC00002030405060708090A0B0C0D0E0F10106D
:102CD00000000000000000000102030406070809CC
:042CE00031010008B6
:042CE4000D010008D6
:102CE80001000000010000000100000001000000D8
:102CF800C800000001000000010000000100000001
:102D080001000000C80000000100000001000000F0
:102D18000100000001000000C8000000F4010000EC
:102D28002C010000C80000000024F400100000007E
:042D38000100000096
:0400000508001609D0
:00000001FF
